{
  "contractName": "MySuperContractQuadraticEquation",
  "abi": [
    {
      "constant": false,
      "inputs": [
        {
          "name": "operAddress",
          "type": "address"
        }
      ],
      "name": "TryAddOper",
      "outputs": [
        {
          "name": "",
          "type": "bool"
        }
      ],
      "payable": false,
      "stateMutability": "nonpayable",
      "type": "function"
    },
    {
      "constant": true,
      "inputs": [
        {
          "name": "user",
          "type": "address"
        }
      ],
      "name": "IsUserCanChange",
      "outputs": [
        {
          "name": "canCHange",
          "type": "bool"
        }
      ],
      "payable": false,
      "stateMutability": "view",
      "type": "function"
    },
    {
      "inputs": [],
      "payable": false,
      "stateMutability": "nonpayable",
      "type": "constructor"
    },
    {
      "constant": true,
      "inputs": [
        {
          "name": "a",
          "type": "int256"
        },
        {
          "name": "b",
          "type": "int256"
        },
        {
          "name": "c",
          "type": "int256"
        }
      ],
      "name": "equation",
      "outputs": [
        {
          "name": "",
          "type": "int256"
        },
        {
          "name": "",
          "type": "int256"
        }
      ],
      "payable": false,
      "stateMutability": "view",
      "type": "function"
    }
  ],
  "bytecode": "0x608060405234801561001057600080fd5b50336000806101000a81548173ffffffffffffffffffffffffffffffffffffffff021916908373ffffffffffffffffffffffffffffffffffffffff1602179055506100603361006560201b60201c565b6100ce565b60018190806001815401808255809150509060018203906000526020600020016000909192909190916101000a81548173ffffffffffffffffffffffffffffffffffffffff021916908373ffffffffffffffffffffffffffffffffffffffff1602179055505050565b610469806100dd6000396000f3fe608060405234801561001057600080fd5b50600436106100415760003560e01c80635aa13fe114610046578063c322a153146100a2578063f76fc078146100fe575b600080fd5b6100886004803603602081101561005c57600080fd5b81019080803573ffffffffffffffffffffffffffffffffffffffff16906020019092919050505061015b565b604051808215151515815260200191505060405180910390f35b6100e4600480360360208110156100b857600080fd5b81019080803573ffffffffffffffffffffffffffffffffffffffff169060200190929190505050610187565b604051808215151515815260200191505060405180910390f35b61013e6004803603606081101561011457600080fd5b8101908080359060200190929190803590602001909291908035906020019092919050505061027f565b604051808381526020018281526020019250505060405180910390f35b600061016633610187565b1561017d576101748261038f565b60019050610182565b600090505b919050565b60008090506000809054906101000a900473ffffffffffffffffffffffffffffffffffffffff1673ffffffffffffffffffffffffffffffffffffffff168273ffffffffffffffffffffffffffffffffffffffff1614156101e657600190505b60008090505b600180549050811015610276578273ffffffffffffffffffffffffffffffffffffffff166001828154811061021d57fe5b9060005260206000200160009054906101000a900473ffffffffffffffffffffffffffffffffffffffff1673ffffffffffffffffffffffffffffffffffffffff16141561026957600191505b80806001019150506101ec565b50809050919050565b60008061028b33610187565b6102e0576040517f08c379a00000000000000000000000000000000000000000000000000000000081526004018080602001828103825260458152602001806103f96045913960600191505060405180910390fd5b73__mysuperLibrary1_______________________63f76fc0788686866040518463ffffffff1660e01b8152600401808481526020018381526020018281526020019350505050604080518083038186803b15801561033e57600080fd5b505af4158015610352573d6000803e3d6000fd5b505050506040513d604081101561036857600080fd5b81019080805190602001909291908051906020019092919050505091509150935093915050565b60018190806001815401808255809150509060018203906000526020600020016000909192909190916101000a81548173ffffffffffffffffffffffffffffffffffffffff021916908373ffffffffffffffffffffffffffffffffffffffff160217905550505056fed0bfd0bed0bbd18cd0b7d0bed0b2d0b0d182d0b5d0bbd18c20d0b4d0bed0bbd0b6d0b5d0bd20d0b1d18bd182d18c20d183d0bfd0bed0bbd0bdd0bed0bcd0bed187d0b5d0bda165627a7a72305820c4e623dcfe9690c8ac41ede50cd5839a2e8c50c3d298d6c8015dd5a76b50d7200029",
  "source": "pragma solidity ^0.5.0;\nimport \"Contracts/MySuperContractBase.sol\";\nimport \"Contracts/MysuperLibrary1.sol\";\n\ncontract MySuperContractQuadraticEquation  is MySuperContractBase {\n  constructor() public {\n    AddOper(msg.sender);\n  }\n\n//ФУНКЦИЯ РАБОТАЕТ ЕСЛИ ПОЛЬЗОВАТЕЛЬ ЕСТЬ В СПИСКАХ\n  function equation (int a, int b, int c) public CanChange view returns(int256, int256) {\n   return mysuperLibrary1.equation(a, b, c);\n  }\n}\n",
  "sourcePath": "C:/Users/Zenbook/metacoin/tmp/contract/contracts/MySuperContractQuadraticEquation.sol",
  "compiler": {
    "name": "solc",
    "version": "0.5.8+commit.23d335f2.Emscripten.clang"
  },
  "schemaVersion": "3.0.16",
  "updatedAt": "2019-10-14T13:48:22.285Z",
  "devdoc": {
    "methods": {}
  },
  "userdoc": {
    "methods": {}
  }
}