{
  "contractName": "mysuperLibrary1",
  "abi": [
    {
      "constant": true,
      "inputs": [
        {
          "name": "a",
          "type": "int256"
        },
        {
          "name": "b",
          "type": "int256"
        },
        {
          "name": "c",
          "type": "int256"
        }
      ],
      "name": "D",
      "outputs": [
        {
          "name": "",
          "type": "int256"
        }
      ],
      "payable": false,
      "stateMutability": "pure",
      "type": "function"
    },
    {
      "constant": true,
      "inputs": [
        {
          "name": "a",
          "type": "int256"
        },
        {
          "name": "b",
          "type": "int256"
        },
        {
          "name": "c",
          "type": "int256"
        }
      ],
      "name": "equation",
      "outputs": [
        {
          "name": "",
          "type": "int256"
        },
        {
          "name": "",
          "type": "int256"
        }
      ],
      "payable": false,
      "stateMutability": "pure",
      "type": "function"
    }
  ],
  "bytecode": "0x61030f610026600b82828239805160001a60731461001957fe5b30600052607381538281f3fe73000000000000000000000000000000000000000030146080604052600436106100405760003560e01c8063bc608b3814610045578063f76fc0781461009b575b600080fd5b6100856004803603606081101561005b57600080fd5b810190808035906020019092919080359060200190929190803590602001909291905050506100f8565b6040518082815260200191505060405180910390f35b6100db600480360360608110156100b157600080fd5b8101908080359060200190929190803590602001909291908035906020019092919050505061010d565b604051808381526020018281526020019250505060405180910390f35b60008184600402028384020390509392505050565b600080600061011d8686866100f8565b90506000811215610196576040517f08c379a00000000000000000000000000000000000000000000000000000000081526004018080602001828103825260118152602001807f64206c657373207468616e207a65726f2100000000000000000000000000000081525060200191505060405180910390fd5b60008113156102275760008660026101ad8461027a565b816101b457fe5b05027fffffffffffffffffffffffffffffffffffffffffffffffffffffffffffffffff870201905060008760026101ea8561027a565b816101f157fe5b05027fffffffffffffffffffffffffffffffffffffffffffffffffffffffffffffffff8802039050818194509450505050610272565b60008114156102705760008660027fffffffffffffffffffffffffffffffffffffffffffffffffffffffffffffffff88028161025f57fe5b050290508081935093505050610272565b505b935093915050565b60008082141561028d57600090506102de565b6003821361029e57600190506102de565b6000600260018401816102ad57fe5b0590508291505b818112156102dc578091506002818285816102cb57fe5b0501816102d457fe5b0590506102b4565b505b91905056fea165627a7a723058204a7f597064abbf7216e5645041c97bc766cba1248f0e58ed9bd7a903d4355ae60029",
  "source": "//Write your own contracts here. Currently compiles using solc v0.4.15+commit.bbb8e64f.\r\npragma solidity ^0.5.0;\r\n\r\nlibrary mysuperLibrary1 {\r\n  // ax ^ 2 + bx + c = 0\r\n  function sqrt(int x) private pure returns (int y)   {\r\n     if (x == 0) return 0;\r\n     else if (x <= 3) return 1;\r\n     int z = (x + 1) / 2;\r\n     y = x;\r\n     while (z < y)\r\n     {\r\n        y = z;\r\n        z = (x / z + z) / 2;\r\n    }\r\n}\r\n\r\nfunction D (int a,int b, int c) public pure returns( int) {\r\n  return  b * b - 4 * a * c ;\r\n }\r\n\r\n function equation (int a, int b, int c) public pure returns (int, int) {\r\n   int256 temp = D (a,b,c);\r\n   require(!(temp < 0), \"d less than zero!\");\r\n\r\n   if (temp > 0) {\r\n     int256 x1 = (b*-1) + sqrt(temp)/2*a;\r\n     int256 x2 = (b*-1) - sqrt(temp)/2*a;\r\n     return (x1, x2);\r\n  }\r\n  if (temp == 0) {\r\n    int256 x = (b*-1)/2*a;\r\n    return (x,x);\r\n  }\r\n }\r\n\r\n}\r\n",
  "sourcePath": "C:/Users/Zenbook/metacoin/tmp/contract/contracts/MySuperLibrary1.sol",
  "compiler": {
    "name": "solc",
    "version": "0.5.8+commit.23d335f2.Emscripten.clang"
  },
  "schemaVersion": "3.0.16",
  "updatedAt": "2019-10-14T13:48:22.260Z",
  "devdoc": {
    "methods": {}
  },
  "userdoc": {
    "methods": {}
  }
}