{
  "contractName": "MySuperContractBase",
  "abi": [
    {
      "inputs": [],
      "payable": false,
      "stateMutability": "nonpayable",
      "type": "constructor"
    },
    {
      "constant": false,
      "inputs": [
        {
          "name": "operAddress",
          "type": "address"
        }
      ],
      "name": "TryAddOper",
      "outputs": [
        {
          "name": "",
          "type": "bool"
        }
      ],
      "payable": false,
      "stateMutability": "nonpayable",
      "type": "function"
    },
    {
      "constant": true,
      "inputs": [
        {
          "name": "user",
          "type": "address"
        }
      ],
      "name": "IsUserCanChange",
      "outputs": [
        {
          "name": "canCHange",
          "type": "bool"
        }
      ],
      "payable": false,
      "stateMutability": "view",
      "type": "function"
    }
  ],
  "bytecode": "0x608060405234801561001057600080fd5b50336000806101000a81548173ffffffffffffffffffffffffffffffffffffffff021916908373ffffffffffffffffffffffffffffffffffffffff1602179055506102ac806100606000396000f3fe608060405234801561001057600080fd5b50600436106100365760003560e01c80635aa13fe11461003b578063c322a15314610097575b600080fd5b61007d6004803603602081101561005157600080fd5b81019080803573ffffffffffffffffffffffffffffffffffffffff1690602001909291905050506100f3565b604051808215151515815260200191505060405180910390f35b6100d9600480360360208110156100ad57600080fd5b81019080803573ffffffffffffffffffffffffffffffffffffffff16906020019092919050505061011f565b604051808215151515815260200191505060405180910390f35b60006100fe3361011f565b156101155761010c82610217565b6001905061011a565b600090505b919050565b60008090506000809054906101000a900473ffffffffffffffffffffffffffffffffffffffff1673ffffffffffffffffffffffffffffffffffffffff168273ffffffffffffffffffffffffffffffffffffffff16141561017e57600190505b60008090505b60018054905081101561020e578273ffffffffffffffffffffffffffffffffffffffff16600182815481106101b557fe5b9060005260206000200160009054906101000a900473ffffffffffffffffffffffffffffffffffffffff1673ffffffffffffffffffffffffffffffffffffffff16141561020157600191505b8080600101915050610184565b50809050919050565b60018190806001815401808255809150509060018203906000526020600020016000909192909190916101000a81548173ffffffffffffffffffffffffffffffffffffffff021916908373ffffffffffffffffffffffffffffffffffffffff160217905550505056fea165627a7a7230582026d761cad549bf990a55c3f71a64151f8caccdd54e3d98a7142630300cf5853f0029",
  "source": "pragma solidity ^0.5.0;\n\ncontract MySuperContractBase {\n    address private owner ;\n    address[] private opers;\n\n    constructor() public {\n    owner = msg.sender;\n  }\n\n//Попытаться добавить оператора, вернет false - если нет прав\nfunction TryAddOper(address operAddress)public returns (bool) {\n  if(IsUserCanChange(msg.sender)){\n    AddOper(operAddress);\n    return true;\n  }\n  else{\n    return false;\n  }\n}\n\n//Может ли человек с указанным адресом расширять список операторов\nfunction IsUserCanChange(address user) public view returns(bool canCHange) {\n canCHange = false;\n if (user == owner)  canCHange = true;\n for (uint i = 0; i < opers.length ; i++ ){\n       if (opers[i] == user) {canCHange = true;}\n   }\n   return canCHange;\n}\n\nfunction AddOper(address oper) internal {\n  opers.push(oper);\n}\n\nmodifier CanChange() {\n  //https://solidity.readthedocs.io/en/v0.4.24/common-patterns.html\n  require(IsUserCanChange(msg.sender), \"пользователь должен быть уполномочен\");\n // Do not forget the \"_;\"! It will\n // be replaced by the actual function\n // body when the modifier is used.\n  _;\n}\n}\n",
  "sourcePath": "C:/Users/Zenbook/metacoin/tmp/contract/contracts/MySuperContractBase.sol",
  "compiler": {
    "name": "solc",
    "version": "0.5.8+commit.23d335f2.Emscripten.clang"
  },
  "schemaVersion": "3.0.16",
  "updatedAt": "2019-10-14T13:48:22.276Z",
  "devdoc": {
    "methods": {}
  },
  "userdoc": {
    "methods": {}
  }
}