{
  "contractName": "MySuperContract1",
  "abi": [
    {
      "inputs": [],
      "payable": false,
      "stateMutability": "nonpayable",
      "type": "constructor"
    },
    {
      "constant": false,
      "inputs": [
        {
          "name": "oper",
          "type": "address"
        }
      ],
      "name": "addperson",
      "outputs": [],
      "payable": false,
      "stateMutability": "nonpayable",
      "type": "function"
    }
  ],
  "bytecode": "0x608060405234801561001057600080fd5b50336000806101000a81548173ffffffffffffffffffffffffffffffffffffffff021916908373ffffffffffffffffffffffffffffffffffffffff160217905550610103806100606000396000f3fe6080604052348015600f57600080fd5b506004361060285760003560e01c80637f6edd1114602d575b600080fd5b606c60048036036020811015604157600080fd5b81019080803573ffffffffffffffffffffffffffffffffffffffff169060200190929190505050606e565b005b60018190806001815401808255809150509060018203906000526020600020016000909192909190916101000a81548173ffffffffffffffffffffffffffffffffffffffff021916908373ffffffffffffffffffffffffffffffffffffffff160217905550505056fea165627a7a723058202567e7fe92cc2f37f4e11213e6e6a73cff3647d81b56b1086c1032c263d3b3d20029",
  "source": "pragma solidity ^0.5.0;\n\ncontract MySuperContract1 {\n    address private owner ;\n    address[] private opers;\n\n    constructor() public {\n    owner = msg.sender; \n  }\n\n  function addperson ( address oper ) public {\n    opers.push (oper);\n  }\n\n}\n",
  "sourcePath": "C:/Users/Zenbook/metacoin/tmp/contract/contracts/MySuperContract1.sol",
  "compiler": {
    "name": "solc",
    "version": "0.5.8+commit.23d335f2.Emscripten.clang"
  },
  "schemaVersion": "3.0.16",
  "updatedAt": "2019-10-07T18:17:30.684Z",
  "devdoc": {
    "methods": {}
  },
  "userdoc": {
    "methods": {}
  }
}